:020000040800F2
:1000000098340020CD00000851310008F92A00087A
:1000100000000000000000000000000000000000E0
:10002000000000000000000000000000C5310008D2
:1000300000000000000000005331000831320008C9
:10004000DF00000800000000B5310008DF000008F4
:10005000DF000008DF000008DF000008DF00000804
:1000600000000000F50A0008DF000008DF000008BB
:10007000DF000008DF000008DF00000800000000CB
:100080003933000849330008DF000008DF000008AA
:10009000DF000008DF000008DF000008DF000008C4
:1000A000DF000008DF000008DF000008653A0008F4
:1000B000753A0008DF0000080348854600F010FC90
:1000C00000480047E5440008983400200448804771
:1000D00004480047FEE7FEE7FEE7FEE7FEE7FEE72F
:1000E00035330008B900000830B50B460146002042
:1000F0002022012409E00D46D5409D4205D31D462E
:100100009540491B2546954040191546521E002D25
:10011000F1DC30BDF0B51FB40646002082B00546C4
:100120004024019100901BE0019922460F46304681
:1001300000F020F8049A059B801A994110D31046CC
:100140001946224600F008FB361A8F4101972246D5
:1001500001200021009F00F0FFFA38184D41009067
:100160002046641E0028DFDC019B009829463246A9
:1001700007B0F0BD10B5202A04DB0846203AD04075
:10018000002110BD0B46D340D0402024A21A91403C
:100190000843194610BD03460B439B0703D009E0F3
:1001A00008C9121F08C0042AFAD203E00B780370B2
:1001B000401C491C521EF9D27047D2B201E00270B5
:1001C000401C491EFBD270470022F6E710B51346CB
:1001D0000A4604461946FFF7F0FF204610BD421CB0
:1001E0000178401C0029FBD1801A7047F8B50246FF
:1001F0004A40D40F42004B0052085B089A4202D298
:100200000246084611464A0023D0C30D4A00DDB21B
:10021000120EAD1A202D35DA49020126490AF605DB
:100220008A19002C00D0524220214F1B1146B940A0
:100230002A411018C20D9A4221D0002C17D0012D4E
:1002400008DCDA05801AD20F8019D207DBB200F081
:10025000AEFAF8BDDA05801A012340001B06C0186B
:1002600080185A428018CA0F1043490007E0490815
:10027000C2071143DA05801A80194008801800F07F
:100280008EFAF8BD61000122511A001BF7E7012226
:10029000D2075140AAE70122D2075040A6E7024602
:1002A00070B54A40D30FDB0740002DD04A002AD05A
:1002B000010E140E000212020919400A520A841893
:1002C000E50104465443000A120A2E045043A419BF
:1002D0004219200CC543AA18120C0125AD03521C6B
:1002E000521912047F39240400D0521C104301D447
:1002F0004000491EC2B20C06C0092018401C40082C
:10030000802A02D003E0002070BD40084000002990
:1003100000DA0020184370BD70B502464A40D50F80
:1003200040004A00ED0740085208002814D0002A77
:1003300012D0C40DD30D41020120C0055202490A5A
:10034000520AE41A091812187D34914201D3641C30
:1003500000E04900002C01DA002070BD002391422A
:1003600001D3891A0343400849000028F7D1002926
:100370000AD0914202D10121C90705E0914201D280
:10038000012101E00121C943E005C018401900F036
:1003900006FA70BDF0B507460846584087B0C00F52
:1003A000049048000E46590040084908BC1A88418C
:1003B00005D2384631461E4617460B4602465800BF
:1003C000400810434CD0300D039040055900400DBB
:1003D000490D0590401A0290402872DA1803012155
:1003E000000B09050843019004980092002805D0ED
:1003F00001995242002088410092019002984021C8
:100400000A1A0199009800F0A7F905460C466B46B8
:1004100007CB00F0B1F9C0197141039A0E0D00230A
:10042000D71756401A467A40164344D0049A002AF9
:100430002DD0029A012A039A15DC1205C01A9141A7
:1004400001263605001C7141D20F059ED20700938C
:10045000019202962A46234600F0EFF907B0F0BD5C
:1004600038463146FAE71605224A0F46B218C01A36
:10047000B74101210905001C4F4100187F41114679
:1004800018187941E20F10436D19644113E0E20737
:100490006D0815436408C2071443039A0126120528
:1004A000C01A91413605001C7141CE074008304307
:1004B0004908C01851412A46234600F0B1F9CDE75A
:1004C000FFE7049801224000C117121A00238B4154
:1004D00004983146C417381AA141EEE730B401241C
:1004E000E407634030BC55E730B40124E4076140C1
:1004F00030BC4FE70000E0FFF0B51FB488B00B99A7
:100500000998002448400999C00F490049080991F9
:10051000C0070B990090490049080B910999089868
:10052000A64608431CD00B990A98084318D009988E
:1005300001244000420D4800410D099824050003A4
:10054000000B204309900B980003000B20430B90F5
:1005500050181C494018002201901446104605E02E
:10056000002001460DB0F0BD032801DA034600E08B
:1005700003239C46C11A0AAE0AE05F0008ADED5B9A
:100580004F00F75B7D430027AA187C41491C5B1E86
:100590006145F2DD410004AB5A522104120C0A43BA
:1005A000240C401C0828DFDB01980290009970465B
:1005B00001910090059B049A0799069800F03DF977
:1005C000D0E700000DFCFFFFF0B50C465C4085B0A5
:1005D000E40FE40703944C00002664085900944695
:1005E000490802460296224321D062460A431ED0A1
:1005F0006200570D4A000E032303550D01240246E5
:100600002C492405781B1B0B360B4018234326432B
:10061000614600901C46501AB44103D30098401C18
:10062000009002E0921800985B41002803DA002055
:10063000014605B0F0BD00200121090507468646A8
:1006400011E064461D46141BB54106D36546521B96
:10065000B341744607430C43A646CD0740084908FA
:10066000284392185B4105460D43EAD110461843D2
:1006700013D06046194650407140084306D060468A
:10068000101AB34106D20122002306E00022012302
:10069000DB0702E00122D2435310009874460105A3
:1006A000381C6141029C039D0019694100F0B8F8B3
:1006B000BFE70000FD03000010B50022962311469D
:1006C00000F075F810BDC20F410040020123400A3E
:1006D000DB05D207090EC0187F2901DA0020704718
:1006E000962903DC9623591AC84001E096398840C0
:1006F000002AF4D040427047C20FD20740004008A1
:100700000BD0C10D0723DB01C91840020905400ABF
:100710001143C2084007114370470020014670474B
:10072000CB0FDB07490010B5490802460A4307D042
:100730000A0D07240903E401090B121B002A01DC3E
:10074000002010BDC900440F0C43C100E018D205C1
:10075000801800F024F810BD10B5202A04DB0146F3
:10076000203A9140002010BD914020239C1A03465E
:10077000E3401943904010BD10B5202A06DBCB178B
:100780000846203A1041C1170B4306E00B461341BF
:10079000D0402024A21A91400843194610BD0029D8
:1007A00004DA401C490001D140084000704770B491
:1007B0000024050C05D11024000402D1002921D009
:1007C0001124050E01D100020834050F01D10001EA
:1007D000241D850F01D18000A41C002801DB4000EE
:1007E000641C002908D020252E1B0D46F540A14091
:1007F00000D001212943084301061B1B000ADB1D11
:1008000002D5002070BC7047DB051818801800293D
:10081000F8DA401C4900F5D170BC40084000704730
:1008200010B5002B08DA0024401C614192185B418E
:100830001A4301D14008400010BDF0B51FB482B08A
:1008400005460C0003D0084603F0A0F902E003F0CF
:100850009DF920300246009021462846FFF77CFF94
:10086000049B059A04460F4618431143084314D0CD
:10087000184610431BD0009840210A1A18460599C3
:10088000FFF778FC05460E46009A05990498FFF795
:1008900063FF084305D0012004E02046394607B035
:1008A000F0BD0020C11705430E432C433743009988
:1008B0000E986305401A7905E40A00220C43FD0AEC
:1008C0000A3002D500200146E9E701051019694107
:1008D0000C9C0D9D00196941FFF7A2FFDFE70000A6
:1008E000064C0125064E05E0E36807CC2B430C3C83
:1008F00098471034B442F7D3FFF7E2FB40520008A8
:100900006052000870B58C180578401C6B075B0FAF
:1009100001D10378401C2A1106D10278401C03E063
:1009200006780E70401C491C5B1EF9D12B0705D4BC
:100930000023521E0DD40B70491CFAE70378401CAB
:10094000CB1A921C03E01D780D70491C5B1C521ED3
:10095000F9D5A142D8D3002070BD10B50146406A38
:10096000826B50231A420AD1816B01225202114339
:1009700081630168CA681205920F05D020E0006B00
:10098000026B0846904710BD827E002A18D10A6883
:10099000120715D58A6853070122002B09DB4B6823
:1009A0000C24A3434B60816B130299431143816371
:1009B00006E0816B202319438163C16B1143C1633E
:1009C00000F070FA10BD10B5406A816B40221143EF
:1009D0008163C16B04221143C16300F065FA10BD4D
:1009E00010B5406A00F05FFA10BD0000F8B504468B
:1009F00000200090206881688907890F012905D1AE
:100A00000168C9072CD1C168090429D48168154A35
:100A1000102611400125002915D1816829438160E4
:100A2000124811490068FFF75FFB00E0401E00908C
:100A30000028FBD100F0DAFD07460CE000F0D6FDFF
:100A4000C01B022807D9A06B3043A063E06B28438A
:100A5000E0630120F8BD20680068C043C007EDD105
:100A60000020F8BD1700008040420F000800002061
:100A7000F8B51D49FF26097901361C4D1C4C01298A
:100A800001D0002908D10179002905D0C0780128BA
:100A900002D12078002816D02878002812D020789B
:100AA00001280FD100F070F96168401A112809D1AE
:100AB000092000223146C00600F091FD0020287078
:100AC00020706060F8BD00F05FF90127606027705A
:100AD00028780028E6D1092001223146C00600F01E
:100AE0007EFD2F70DBE700003406002005000020AB
:100AF0000C00002010B5024800F056FB10BD0000AD
:100B00006C08002010B504460068054940181421FF
:100B1000FFF7EAFA800020640248E06310BD00009D
:100B2000F8FFFDBF0000024030B5056C0124AC4069
:100B3000C56B6C60046863604368102B036803D066
:100B400099600068C26030BD9A600068C16030BDC5
:100B500070B504461A481B4D816C438B4A00114600
:100B60000A392E685918B14218D8A17D164B0029B0
:100B700015D0406C821A2069351A1148806C4000EB
:100B80001018AA4203D80A2801D0012911D00A3826
:100B9000A84203D8022901D10020A07570BD012010
:100BA000A07500220821184600F019FD2868206170
:100BB00070BD01220821184600F011FD0220ECE76B
:100BC00034060020000000200004004870470000A8
:100BD00006490020C86106480169042211430161E9
:100BE0000169402211430161704700007814002020
:100BF00000200240064A0021D16106490A69022309
:100C00001A430A614861086940221043086170472D
:100C1000781400200020024010B5054B0022DA6154
:100C2000044A1369012423431361018010BD0000AD
:100C3000781400200020024010B50B4A0020D16833
:100C4000CB060A4904D5C86902231843C86110209D
:100C5000D3685B0705D5CB6901242343CB6104210D
:100C60000843D06010BD000000200240781400202E
:100C700070B5054600F0BAFC0646104C0AE0681C48
:100C800008D0002D04D000F0B1FC801BA84201D98F
:100C9000032070BDE068C007F1D1E068800601D58F
:100CA0002020E060E068C00602D4E068400703D579
:100CB000FFF7C2FF012070BD002070BD0020024080
:100CC00070B504461D481E4E418B826C89183268EF
:100CD00091422ED821791B4D00290FD02368D21ABA
:100CE000036C9A4201D3012917D0406C1818904226
:100CF00003D8022901D10020207170BD012020718C
:100D000002468021284600F06AFC00222021284665
:100D100000F065FC3068206070BD0022802128460C
:100D200000F05DFC01222021284600F058FC022042
:100D3000E2E7012002F048FA70BD0000340600200E
:100D4000000000200004004810B5012003F05CFD05
:100D50000A480068401C0FD102F06EFA03F0B0FDA3
:100D6000322000F0CFFABFF34F8F06490448C86025
:100D7000BFF34F8F00BFFDE710BD00003406002019
:100D80000400FA0500ED00E001480068704700002B
:100D900000000020F8B50025044620340095227D8F
:100DA000012A39D00122227503689E68760767D42C
:100DB000384F4E68BE424DD09E6A0F78BA401643F7
:100DC0009E620123C26A1B079A421FD0012A1DD0CE
:100DD000022A1BD0032A19D0042A17D0052A15D0BD
:100DE000062A13D0072A11D002688B685669760745
:100DF000760FB3420AD05369DB08DB005361006809
:100E000042690B7A5B075B0F1A4342610A68102A3A
:100E100004D0112A02D038E00220F8BD1E488368B1
:100E2000102A07D001229205134383600868102816
:100E300003D02AE00122D205F6E7194817490068D5
:100E4000FFF752F90A21484300E0401E00900028B5
:100E5000FBD11AE0986A0E78B24090439862096814
:100E6000102901D0112910D10B488268102904D013
:100E7000012189058A43826007E00121C905F9E75C
:100E8000816B2022114381630125002020752846B3
:100E9000F8BD0000011000000027014040420F0093
:100EA000080000207047704770470000F8B5002523
:100EB0000446002805D0A06B26462036002802D024
:100EC00007E00120F8BD0020E0633075204600F007
:100ED000A7F8A06B1022104270D1206881684907E2
:100EE0006CD4A16B1301994302231943A163816858
:100EF0008907890F012905D10168C9070FD1C16888
:100F000009040CD4C16818239943A3681943C1602C
:100F100020680169636889008908194301612068B4
:100F2000C1683D4B1940C160207E617E8003C903CA
:100F30000843A17E4B031843A36A012B02D001236F
:100F40001B0300E000231843E36818432369022BC6
:100F500009D0002318433379E67E5B001843012350
:100F6000012E02D00AE00423F4E7002927D0A16B68
:100F700020263143A163E16B1943E163E1690E4629
:100F8000FF3EC23E02D0266A314308432168CE6844
:100F90000643CE600126E16A3607B14213D001292B
:100FA00011D002290FD003290DD004290BD0052917
:100FB00009D0062907D0072905D010E028E0012133
:100FC00009040843DAE721684E69F608F6004E6125
:100FD00021684E69A78D7F077F0F3E434E612168D0
:100FE000C9680E4E3140814207D10020E063A06BFA
:100FF00080088000401CA06308E0A06B02218843A9
:101000001043A063E06B1843E06301252846F8BD58
:10101000A06B1043A063F8E71902FEFFE7FF3F83D0
:10102000F0B587B0054614216846FFF7CDF8204992
:101030002868884239D11F4988694E153043886134
:101040008869304005904A69300202434A61496923
:101050000027014005917220009003200190092093
:1010600069460297C00600F00BFA1348134C81C47E
:1010700027608020A66060600001E060202067613A
:1010800020610E48083C00F0DDF8002801D0FFF791
:101090009DFD09487830816A090909018162816AE8
:1010A0000122114381622C63656207B0F0BD00002C
:1010B0000024014000100240080002406C0800209B
:1010C000F7B5044600680025806840073DD42646F1
:1010D0002036307D01280AD001273775607E01282F
:1010E00007D02046FFF782FC050002D02EE0022048
:1010F000FEBDA06B16490840FF2101310843A063E3
:101100000020E0633075216B12488862216B124821
:10111000C862216B1148086321681C2008602068A0
:1011200041681022114341602068C1683943C160A1
:101130002168206B4031029B019A00F0ADF82068D5
:10114000816804221143816000E002252846FEBD2B
:10115000FEF1FFFF5B090008E1090008C70900086C
:1011600070B50024014620314A78022A03D00421B8
:101170008163012416E0026813680E25AB431360F7
:10118000026813685B085B0013600122056C13465C
:10119000AB40C56B6B604A7000220A70416B00293E
:1011A00000D08847204670BDF0B4C16B0D6801685F
:1011B0000C680422066C1346B3402B420DD0630723
:1011C0000BD50B689B0602D40B6893430B60016C34
:1011D0008A40C16B4A60C16A19E00227B7400246E3
:1011E0002F4001232032002F15D0A70713D50C68FC
:1011F000A40604D40C680A25AC430C605370036C3D
:1012000002219940C36B596000211170816A002945
:1012100016D0F0BC08470827B7402F4210D024074B
:101220000ED50C680E25AC430C60046C1946A14029
:10123000C46B61608363537000211170016BE6E73A
:10124000F0BC704770B5040021D002212046203048
:1012500005464170226811680E48A3680140606825
:1012600026691843E3683343184363691843A36945
:101270001843E3691843084310602046FFF742FC17
:101280000021A163012068702970084670BD01200B
:1012900070BD00000FC0FFFFF8B504468C4620303B
:1012A00001780025012909D0012606704178002720
:1012B000012905D0077002252846F8BD0220F8BD97
:1012C00002214170A7632068016849084900016054
:1012D00061462046FFF728FCE06A00282068016884
:1012E00002D00E22114306E00A2211430160206859
:1012F0000168042291430160206801683143016064
:10130000DAE7000070B5044600F070F90546601C8D
:1013100002D004480078241800F068F9401BA0426D
:10132000FAD370BD1C060020F8B5054623480F46C9
:10133000017E012601290BD0012101762868204C6D
:10134000012807D02046FFF793FC002813D030E097
:101350000220F8BD2046FFF78BFC002829D1FFF7BB
:1013600037FC2046FFF784FC064616480169042234
:10137000914301611DE00020C04338606C6812E0B9
:101380002046FFF737FC0E48FFF772FC06460D4873
:10139000026902218A430261002E01D03C6008E00C
:1013A0000120C0022418A868C10268680818A04279
:1013B000E6D80248002101763046F8BD78140020B6
:1013C00050C30000002002400348016980221143FD
:1013D000016100207047000000200240F0B51FB4FA
:1013E00007461A480024017E15461E46012907D0EB
:1013F000012101761648FFF73BFC002803D020E0CE
:10140000022005B0F0BD012F02D0022F00D004272A
:10141000220128463146FEF7ADFE81B201986200F6
:101420001018FFF7F9FB0A48FFF722FC09490A697F
:10143000520852000A61002803D1641CE4B2BC4285
:10144000E6D3024900220A76DBE700007814002088
:1014500050C3000000200240064900200A6912061D
:1014600007D5054A4A60054A4A600969090600D558
:10147000012070470020024023016745AB89EFCD72
:10148000F8B500238DE001249C40A44622407DD085
:101490004C68022C01D0122C0CD1DC08A4002718B7
:1014A0003C6A5D07ED0E0F26AE40B4430E69AE40B8
:1014B00026433E6205685E000324B4400F79A543CD
:1014C000BF07BF0FB7402F4307604D68012D05D000
:1014D000022D03D0112D01D0122D0ED18568CF68B9
:1014E000A543B7402F43876047686546AF430D79F2
:1014F000ED06ED0F9D403D434560C568A5438C68F2
:10150000B4402C43C4604C68E40049D5284CA5691C
:1015100001263543A561A4699D0834400094254CFB
:10152000AD002F19BC689D072E0F0F25B540AC43A9
:101530000925ED06A84201D100250FE01E4DA84265
:1015400001D101250AE01D4DA84201D1022505E087
:101550001B4DA84201D1032500E00525B5402543D8
:10156000BD60184C25684E689543F60300D51543B9
:10157000256065684E689543B60300D515436560E0
:10158000A5684E689543F60202D500E008E01543D1
:10159000A560E5684E689543B60200D51543E56041
:1015A0005B1C0A681446DC4000D06CE7F8BD000004
:1015B00000100240000001400004004800080048FC
:1015C000000C0048000401400069084000D00120E0
:1015D000704742690A4200D0090481617047002ABD
:1015E00001D08161704781627047000001488068C6
:1015F000704700001C0600200248816802788918A4
:10160000816070471C06002010B506480168102252
:1016100011430160002000F007F800F027F80020D7
:1016200010BD00000020024070B504460D4D7D2025
:101630002978C000FEF758FD01460B480068FEF708
:1016400053FD00F0A5FD002809D1042C07D200228B
:101650002146401E00F02AF800206C6070BD012079
:1016600070BD00001C0600200800002008B50848D6
:101670008169012211438161816911400091C26930
:1016800001040A43C261C0690840009008BD00001F
:1016900000100240002805DBC106C90E0120884069
:1016A000014908607047000000E100E010B502F059
:1016B000A9FA10BDF8B505460068354CC00352D5EF
:1016C000E0690026C00007D4E16920040143E1611C
:1016D000E1690140012600912E480168C90510D436
:1016E0000168821511430160FFF780FF074604E09F
:1016F000FFF77CFFC01B642824D826480068C0057B
:10170000F6D5206A03273F02384020D06968394067
:1017100081421CD0206A226AB843012109040A438D
:101720002262226A8A4322622062C0070FD0FFF73A
:101730005DFF009008E0FFF759FF0099411A164835
:10174000814201D90320F8BD206A8007F3D5206AC1
:101750006968B84308432062002E04D0E169012083
:1017600000078143E1612878C00705D0206BA96894
:1017700080088000084320632878800605D5206B08
:1017800010218843E968084320630020F8BD000069
:10179000001002400070004088130000F8B50F46AA
:1017A000060059D03A4D2868C007C00FB84209D288
:1017B000286840084000384328602868C007C00FE8
:1017C000B84249D13068334C81070CD5400704D565
:1017D000606807210902084360606068F02188435F
:1017E000B168084360603078C00726D0706801286F
:1017F0000ED0216802280ED0890700292CDA6168F2
:101800008908890001436160FFF7F0FE00900DE058
:1018100021688903F1E78901EFE7FFF7E7FE009907
:10182000411A1D48814201D90320F8BD60680C218E
:101830000840716889008842EFD12868C007C00F4E
:10184000B8420BD92868400840003843286028680F
:10185000C007C00FB84201D00120F8BD3078400762
:1018600006D56068072109028843F1680843606073
:1018700000F028F86168094A0906090F515CC84060
:10188000074908600020FFF7CFFE0020F8BD0000E8
:10189000002002400010024088130000D24F0008D0
:1018A000080000200448054900684968044A4905C1
:1018B000490F515CC84070470800002000100240EA
:1018C000E24F000810B513A30FCB88B06C460FC4CD
:1018D00014A30FCB0FC417494B680C201A460240C3
:1018E0001548042A13D0082A11D19A02120F6C4607
:1018F000A45CC96A04AA0907090F525CD903890FBD
:1019000000231946FEF706FC214602F056F908B0FE
:1019100010BD000002030405060708090A0B0C0DA0
:101920000E0F10100102030405060708090A0B0C2C
:101930000D0E0F100010024000127A00FEB50400D8
:1019400071D02078DC4DC00749D068680007800F4F
:10195000012820D068680007800F022804D1686839
:10196000C003800F022816D0012062680004012AFB
:1019700018D08100002A01D0052A17D02A68824396
:101980002A60286888432860606800281BD0FFF719
:101990002DFE064613E02868800320D560680028E5
:1019A000CED01CE0296801432960EDE72A680A438C
:1019B0002A60F7E7FFF71AFE801B642870D82868B2
:1019C0008003F7D50BE0FFF711FE064604E0FFF7B2
:1019D0000DFE801B6428F1D828688003F7D4207896
:1019E0000126800700283EDA68680007800F13D0C0
:1019F00068680007800F022804D16868C003800F60
:101A0000012809D0E068002828681DD030432860EC
:101A1000FFF7ECFD07460CE0286880070CD5E0686E
:101A2000012800D108E043E1FFF7E0FDC01B0228D8
:101A3000C4D828688007F7D52868F8218843216929
:101A4000C900084328600EE0400840002860FFF706
:101A5000CDFD074604E0FFF7C9FDC01B0228ADD845
:101A600028688007F7D42078000722D5E06900288D
:101A7000686A0ED030436862FFF7B8FD074604E09D
:101A8000FFF7B4FDC01B022898D8686A8007F7D515
:101A90000FE0400840006862FFF7A8FD074605E038
:101AA0009DE0FFF7A3FDC01B022887D8686A800766
:101AB000F7D4207804274007002860DA002001903E
:101AC000E869C00008D4E969B8060143E961E96939
:101AD000014001200091019078480168C90511D4A6
:101AE0000168821511430160FFF780FD009005E059
:101AF000FFF77CFD0099401A642870D86F48006891
:101B0000C005F5D5A06801280AD0002801D0052815
:101B100010D0286A400840002862286AB84301E0D3
:101B2000286A30432862A068002812D0FFF75EFDC3
:101B300000900AE0286A38432862F1E7FFF756FD73
:101B40000099411A5E48814249D8286A8007F5D534
:101B50000DE0FFF74BFD009006E0FFF747FD009911
:101B6000411A574881423AD8286A8007F5D401982B
:101B7000002804D0E869012109078843E86120783A
:101B8000C00635D5606901280CD0401D686B23D094
:101B900038436863686B400840006863FFF726FDC0
:101BA000064622E0686B38436863686B30436863BD
:101BB000FFF71CFD064604E0FFF718FD801B022816
:101BC0005BD8686B8007F7D5686BF8218843A169FB
:101BD000C900084368630BE0B8436863F4E74CE06E
:101BE000FFF704FD801B022847D8686B8007F7D4F5
:101BF000206A00285ED069680907890F022942D04F
:101C0000012636060228286805D0B0432860FFF771
:101C1000EDFC044633E0B0432860FFF7E7FC0746DD
:101C200004E0FFF7E3FCC01B022826D828688001E7
:101C3000F7D4E86AE16A000900010843E862616AD2
:101C4000A06A084369687B22D20391430843686015
:101C5000286830432860FFF7C9FC044604E0FFF71A
:101C6000C5FC001B022808D828688001F7D521E0B0
:101C7000FFF7BCFC001B022801D90320FEBD286829
:101C80008001F5D416E00128F8D06868E96A0322DB
:101C9000D203636A02409A420AD10907E26A090F35
:101CA000914205D10F2189040840A16A884201D0E0
:101CB0000120FEBD0020FEBD00100240007000406B
:101CC0008813000010B503490120087002A002F03B
:101CD0006FFB10BD14000020414C41524D204121AA
:101CE0000D0A000010B5044600688168C9040CD5CF
:101CF000C068C00509D52046FFF7E4FF2168C86821
:101D000080221040FF388238C86001200249400418
:101D100048610120607710BD0004014010B50068E3
:101D20000B464068C021C94301400002000ECC04AC
:101D3000D870E40E5C708C06A40E0904490F9C70E8
:101D40001970002A0AD101F005FAD870587801F00C
:101D500001FA5870987801F0FDF99870002010BDD4
:101D600030B50B460168896A596001680969490400
:101D7000490C9960006804680F48214601408802B8
:101D80004D04800E18706D0E49065D70490E9970F5
:101D90006102490E40242140D970002A0AD101F085
:101DA000D9F91870587801F0D5F95870987801F081
:101DB000D1F99870002030BD7F7F7F0070B504009E
:101DC00003D0607F002802D006E0012070BD002013
:101DD0002077204600F04CF8022060772168CA2066
:101DE0004862216853204862204601F0C6F9FF2569
:101DF0000426002824D1206881681C4A1140816093
:101E00002168886862686369104322691A43104335
:101E100088602168E06808612068016922891204ED
:101E2000114301612068C16880229143C16020682C
:101E30008068800608D4204600F090F9002803D07E
:101E4000206845626677C0E72068016C0122920431
:101E5000914301642068016CA26911430164206808
:101E6000456201206077002070BD0000BFFF8FFF3A
:101E700010B50068084988420DD10848016A01225E
:101E8000D20311430162002211460220FFF70EFC2B
:101E90000220FFF7FFFB10BD0028004000100240A9
:101EA000F8B50446007F0B46012839D00120207781
:101EB0000220607720681F46203700268068002AAD
:101EC00030D0400600D4DE7019789D7809040D43A7
:101ED0005978DA780902120411430D433978D86928
:101EE00009060D4305435869996905435868084335
:101EF00000902168CA204862216853204862206807
:101F00008168FF220132914381602068C16880228C
:101F10001140FF398239C160FFF768FB074629E0AD
:101F20000220F8BD400600D4DE70187801F01AF9DE
:101F30000504587801F016F900020543987801F07D
:101F400011F90543D87800040543387801F00AF9FF
:101F500000060543D869C5E7FFF748FBC11B7D2094
:101F6000C000814206D92168FF20486203206077C3
:101F70002677F8BD2068C068C007EDD02068C5612D
:101F800021680098486420688168FF22013211436B
:101F900081602068816812011143816008480268ED
:101FA000012149040A43026082680A438260216871
:101FB000FF2048620120607726770020F8BD0000EE
:101FC00000040140F8B50446007F0B4601280FD0FD
:101FD0000120207702206077002A0BD0D8789D78E6
:101FE000000405435878097800024903084317E0C4
:101FF0000220F8BD5878C10603D5EF2108400A3009
:102000005870D87801F0AEF80504587801F0AAF8B5
:1020100000020543987801F0A5F8054318784003BD
:1020200005432168CA20486221685320486220463F
:1020300001F0A3F80026FF27002811D10F48054022
:10204000206845602068C16880229143C160206893
:10205000806880060BD4204600F080F8002806D067
:10206000206847620420607726770120F8BD206849
:1020700047620120607726770020F8BD3FFFFF0010
:10208000F8B50446007F0D46012821D001202077B5
:1020900002206077206800278068002A1AD0400656
:1020A00000D4EF702878AE78000406436878E978A9
:1020B00000020904084306432168CA2048622168D7
:1020C00053204862204601F058F8002834D114E02B
:1020D0000220F8BD400600D4EF70287801F042F8E5
:1020E0000604687801F03EF800020643A87801F083
:1020F00039F80643E8780004DDE717480640206811
:1021000006602068816801229204914381602969F8
:10211000E868084321688A68104388602068C168BD
:1021200080229143C1602068806880060CD42046DC
:1021300000F014F8002807D02168FF20486204202E
:10214000607727770120F8BD2168FF2048620120D1
:10215000607727770020F8BD7F7F7F0070B5044649
:102160000068C168A0229143C160FFF73FFA7D2655
:102170000546F60006E0FFF739FA401BB04201D9E8
:10218000032070BD2068C0688006F4D5002070BDB3
:10219000094910B5401E884201D9012010BD074CE5
:1021A00060610321081F01F02DFD0020A0610720C0
:1021B0002061002010BD0000FFFFFF0000E000E0F4
:1021C00070477047F0B502462032137F012B1ED0B6
:1021D000012515770223537706687468B368702762
:1021E000BC430F682743776000680A4CA04205D0C3
:1021F000094CA04202D0094CA04204D18024496875
:10220000A34319438160557700201077F0BD022069
:10221000F0BD0000002C01400004004000400140DF
:1022200070B5040005D025462035687F002802D00F
:1022300006E0012070BD00202877204600F00AF853
:1022400002206877211D206801F086F80120687758
:10225000002070BD08B5134A0168134891420DD1A2
:10226000C26902210A43C261C0690022084000908D
:1022700011461020FFF71AFA10200FE00B4A914286
:102280000ED1C26910210A43C261C0690022084010
:10229000009011461120FFF709FA1120FFF7FAF913
:1022A00008BD000000040040001002400010004083
:1022B0000268D36801210B43D3600068826852072B
:1022C000520F062A02D002680A43026000207047BB
:1022D000F8B5054604462035287F012817D0012689
:1022E0002E7702206877226890687727FF23B8430B
:1022F0001B02984390600A68502A31D00EDC202AD5
:102300004BD006DC002A48D0102A3AD145E0022002
:10231000F8BD302A41D0402A33D136E0602A27D098
:10232000702A12D001200003121A2AD0824228D12A
:10233000CB684A688968206801F052F82068816893
:1023400001229203114381601BE0CB684A688968CF
:10235000206801F045F8216888683843886010E0FB
:10236000CA684968206801F04BF95021206806E0EE
:10237000CA684968206801F054F96021206801F0BA
:102380003AF86E7700202877F8BDCA684968206857
:1023900001F036F940212068F1E711462068EEE7A8
:1023A000704770B50446006801690025C943890774
:1023B000002915DBC168C943890711D4E91E0161F1
:1023C00001202077206880698007204602D0FFF72F
:1023D000E7FF04E000F0BEF8204600F03FF9257763
:1023E00020680169C943490717D4C168C94349072F
:1023F00013D40421C9430161022020772068806939
:102400008005800F204602D0FFF7CAFF04E000F0ED
:10241000A1F8204600F022F9257720680169C94318
:10242000090716D4C168C943090712D40821C94352
:102430000161042020772068C0698007204602D00F
:10244000FFF7AEFF04E000F085F8204600F006F943
:10245000257720680169C943C90617D4C168C943F3
:10246000C90613D41021C9430161082020772068D0
:10247000C0698005800F204602D0FFF791FF04E07D
:1024800000F068F8204600F0E9F825772068016937
:10249000C943C90708D1C168C943C90704D1891E06
:1024A0000161204600F0DCF820680169C943090693
:1024B00009D4C168C943090605D48021C943016113
:1024C0002046FFF77DFE20680169C943490609D40B
:1024D000C168C943490605D44021C943016120466A
:1024E00000F0E0F820680169C943890609D4C16891
:1024F000C943890605D42021C94301612046FFF75D
:1025000060FE70BD10B586B0044614216846FDF724
:102510005BFE0D492068884213D10C4842690913BB
:102520000A434261406908400590022000900190F2
:102530000020029003900120049069460448FEF7B1
:102540009FFF06B010BD00000004004000100240D4
:10255000000400487047F8B5064604462036307F30
:102560000D4601280DD00120307702207077042716
:10257000002A08D0042A16D0082A2AD00C2A4DD1C5
:1025800037E00220F8BD206800F03EFF2068816936
:1025900008221143816120688169B9438161206803
:1025A00081692A6912E0206800F072FF2068826960
:1025B0000121C9020A4382612068816901229202D5
:1025C00091438161206881692A6912021143816106
:1025D00024E0206800F09CFF2068C26908210A43BB
:1025E000C2612068C169B943C1612068C1692A69B3
:1025F00012E0206800F0CEFF2068C1690122D202FB
:102600001143C1612068C269012189028A43C26104
:102610002068C1692A6912021143C16101207077E3
:1026200000203077F8BD70B5040005D02546203570
:10263000687F002802D006E0012070BD00202877C6
:10264000204600F00AF802206877211D206800F07B
:1026500083FE01206877002070BD7047704700003E
:102660000E4910B5884215D10D4C2068401C2060E1
:1026700000F0D0FA32212068FDF736FD0123092051
:102680001B03C006002906D0192903D101221946CF
:10269000FEF7A5FF10BD0022F9E700001009002099
:1026A0000000002070477047F8B502680446D06902
:1026B000116893684C4D06462E402025002E68D0A8
:1026C000DE07F60FFF2721370F40374375D0C707C6
:1026D00006D0CF0504D501271762E26F3A43E267BF
:1026E000820708D5DA0706D0276802223A62E26F2D
:1026F00004273A43E267420708D5DA0706D0236881
:1027000004221A62E26F02231A43E267020709D524
:102710000A462A40324305D0236808221A62E36F32
:102720001343E367020508D54A0106D50122236851
:10273000D2021A62E26F2A43E267E26F002A30D0C7
:10274000800606D5880604D5216E002901D02046D2
:102750008847E06F21688968490602D42821084229
:1027600024D0204601F010F820688168490619D568
:102770008168402291438160E06E002812D01B499D
:102780004163E06EFEF7ECFC00280AD0E06E416B7E
:1027900006E0830611D58B060FD5216E12E0204688
:1027A0008847F8BD2046FFF77EFFF8BD2046FFF7BB
:1027B0007AFF0020E067F8BDFFE7030605D50B06AA
:1027C00003D5616E0029EAD1F5E74006F3D5480646
:1027D000F1D51168204640239943116065670021B7
:1027E000616600F088F9E6E70F0800007537000819
:1027F00010B5040003D0606F002802D007E001206C
:1028000010BD002170200155204600F027F824203B
:10281000606720680168490849000160204601F0AE
:102820001BF80128ECD0606A002802D0204600F096
:102830000BFF206841680122D20291434160206869
:102840008168082291438160206801680122114358
:102850000160204600F05EFF10BD0000F0B587B0BB
:10286000044614216846FDF7AFFC264F0121266877
:10287000002225484904022303240125BE421DD11C
:102880008769CE1037438761876937400597466966
:102890000E43466140690193084005906002009034
:1028A00002AE34C609206946C006FEF7E9FD0022E3
:1028B00011461B20FEF7FAFE1B201EE0134FBE42FE
:1028C0001DD1C6690E43C661C6690E4005964669AC
:1028D0000E43466140690193084005900C2000902A
:1028E00002AE34C609206946C006FEF7C9FD0022C3
:1028F00011461C20FEF7DAFE1C20FEF7CBFE07B0C7
:10290000F0BD0000003801400010024000440040CB
:10291000F0B5836F202B54D100290AD0002A08D0AB
:102920008568DC01A54206D10369002B03D1CB07E2
:1029300001D00120F0BD034660331E7C012E40D043
:1029400001261E744165014640310A834A830022F4
:10295000FF260266A54204D10569002D13D11A4D48
:102960000AE07F27002D09D001263607B5420CD199
:102970000569002D05D03F258D8307E00569002DF1
:1029800001D08F8302E08E8300E08A83C267222118
:10299000816701688D68012635438D608168A14299
:1029A00002D1016900290AD0084901661A74006839
:1029B0000168FF222132114301600020F0BD04496B
:1029C000F3E70220F0BD0000FF010000013800081D
:1029D000A937000810B50D4A01680D48914207D18A
:1029E00001780C4801F067FD012209490A480AE014
:1029F0000A4A914209D14178094801F05CFD044935
:102A00000122491C0748FFF783FF10BD0038014031
:102A100018000020501200205009002000440040FF
:102A200058130020D0090020FFB50446406F83B042
:102A300017460D4620285CD1002D0AD0002F08D063
:102A4000A168C001814207D12069002804D1E807AC
:102A500002D0012007B0F0BD204660300290007C1B
:102A6000012846D00298012101740020E06721204E
:102A70006067FEF7BBFD26464036019037827782BD
:102A80000120A1680003814202D12069002802D000
:102A90002F46002511E000270FE00022802120466C
:102AA00000F092FF002815D1002F15D0216838784A
:102AB00008857F1C708A401E7082708A019B0028E6
:102AC00006980090E9D100224021204600F07CFFCA
:102AD000002808D00320BDE728882168C005C00D64
:102AE0000885AD1CE6E72020606702990020087485
:102AF000B0E70220AEE77047FEE7000010B50128FE
:102B000006D00022FF2101310248FEF768FD10BD0A
:102B10000122F7E70004004810B5012806D0002282
:102B2000012149020248FEF75AFD10BD0122F7E7D4
:102B30000004004870B50546154801680322920458
:102B400091430160016802021143016000240020EA
:102B5000FFF7D4FF280601D5012000E00020FFF791
:102B6000DBFF6806050E022001F030FC0120FFF7B4
:102B7000C5FF022001F02AFC641CE4B2082CE6D355
:102B80000020FFF7BBFF0120FFF7B8FF70BD00007A
:102B90000004004810B50E480168032292049143D6
:102BA000016001680202114301600120FFF7B4FFD8
:102BB0000120FFF7A3FF042001F008FC0020FFF72D
:102BC000ABFF042001F002FC0020FFF797FF10BDCF
:102BD0000004004810B50E48016803229204914396
:102BE000016001680202114301600020FFF786FFC7
:102BF0000020FFF791FF042001F0E8FB0120FFF720
:102C00007DFF0120FFF788FF042001F0DFFB10BDEE
:102C100000040048F8B500F041F800261D4C1E4D98
:102C200000282CD0287800280FD000F037F86070EA
:102C300028780127401C2870C0B2012809D92178C2
:102C40006278914205D02E7005E000F027F82070E0
:102C5000EEE7142803D0E078012804D015E060786E
:102C60002071E77011E0287896280ED31421FDF723
:102C70003BFA002909D160782071A77005E02E7019
:102C8000267126706670A670E6700248FDF7F0FEA9
:102C9000F8BD0000280600200400002070B50925BA
:102CA000ED0680212846FEF78FFC1E4C00280BD134
:102CB00001212046FEF788FC012805D10421204689
:102CC000FEF782FC012806D080212846FEF77CFC16
:102CD000012802D00DE0022070BD01212046FEF740
:102CE00073FC002805D104212046FEF76DFC012865
:102CF00006D080212846FEF767FC012802D00DE0AF
:102D0000032070BD01212046FEF75EFC012805D19D
:102D100004212046FEF758FC002801D0002070BD99
:102D2000012070BD000400483EB5002126480091F6
:102D300001910291234A4160026003460124042567
:102D40000C33816032C3017641768476FF22C176EE
:102D5000C232C2610162014620310C718462FEF709
:102D6000A5F8002801D0FDF731FF012000030190F4
:102D700007200290009469461348FEF70BF80028DC
:102D800001D0FDF723FF69460F480095FEF702F8D2
:102D9000002801D0FDF71AFF0520009069460A4877
:102DA000FDF7F8FF002801D0FDF710FF0620009086
:102DB00069460548FDF7EEFF002801D0FDF706FF44
:102DC0003EBD0000002401402C08002008B5084842
:102DD0004169012211434161406910400022009085
:102DE00011460920FEF762FC0920FEF753FC08BDDE
:102DF00000100240F0B587B014216846FDF7E4F9F1
:102E0000494842690121C9040A43426142690A40B2
:102E100005924269C9000A43426142690A4005922B
:102E2000426949110A43426142690A400592426976
:102E300049000A4342614069032408403B4E640351
:102E40000590002221463046FEF7C9FB00220121F1
:102E50003748FEF7C4FB374F002239463648FEF7A5
:102E6000BEFB9921092000220902C006FEF7B7FB2C
:102E7000009400240125019502946946304603948C
:102E8000FEF7FEFAE803009001946946029430468A
:102E9000FEF7F6FA009502946946254801950394D9
:102EA000FEF7EEFA0220254E009069460196029444
:102EB0001F48FEF7E5FA09206946C006019600950D
:102EC0000294FEF7DDFA8020009009200194694603
:102ED0000294C006FEF7D4FA0520009001946946DA
:102EE00002941548FEF7CCFA0294694612480097FE
:102EF00001950394FEF7C4FA892000020090029421
:102F0000694601950394C004FEF7BAFA28030090BD
:102F1000112001900920029469460394C006FEF72F
:102F2000AFFA07B0F0BD00000010024000080048F2
:102F300000140048F8FF00000004004800001110D1
:102F400030B591B014216846FDF73EF900242821E0
:102F500006A80594FDF738F92649274812C06421D0
:102F600001608460C4608900046141600838FEF734
:102F700025FF002801D0FDF729FE192168460170C0
:102F800044214170502181700394012269461A48FE
:102F90000494FFF775F8002801D0FDF717FE07210C
:102FA00068460175012545758575C4752A4605A9CC
:102FB0001148FFF707F8002801D0FDF707FE684623
:102FC000047644768476079409940A940B940C94BE
:102FD00008A80D940576FF2001300F90012206A964
:102FE0000548FEF75DFF002801D0FDF7EFFD11B0A9
:102FF00030BD000000280040B008002030B58DB082
:1030000000240794089409940A940B941C216846A0
:103010000C94FDF7D9F820481E490160FF21E131E9
:103020006425021D32C204618461FFF7F9F80028AB
:1030300001D0FDF7CBFD01200003079007A916483A
:10304000FFF746F9002801D0FDF7C0FD1248FFF751
:10305000EAFA002801D0FDF7B9FD0B940BA90E4840
:103060000C94FFF7AFF8002801D0FDF7AFFD60200A
:10307000009002940C226946019504940648FFF7DB
:103080006AFA002801D0FDF7A1FD0348FFF73AFADC
:103090000DB030BD00040040D008002010B50A4833
:1030A0000849016009494160002181600749C83928
:1030B000C16080218161FFF7B3F8002801D0FDF7DE
:1030C00085FD10BD00100040100900201F03000006
:1030D00010B50E480C490160E12149024160002110
:1030E0008160C160016181610C22C1614261016244
:1030F000202141620902C163FFF77AFB002801D059
:10310000FDF764FD10BD00000038014050090020AB
:1031100010B50E480C490160E121490241600021CF
:103120008160C160016181610C22C1614261016203
:10313000202141620902C163FFF75AFB002801D038
:10314000FDF744FD10BD000000440040D009002000
:103150007047704701090A2200075143000F4018C9
:10316000C0B27047002102E00A38C0B2491C0A28E8
:10317000FAD20907090E0843704770B50446006883
:10318000C168490613D40021C943C160FEF72EFA75
:103190007D260546F60006E0FEF728FA401BB04201
:1031A00001D9032070BD2068C0684006F4D5002016
:1031B00070BD000010B50248FEF794FD10BD000080
:1031C000B00800207047000010B5184C01281BD033
:1031D000002818D1002280212046FEF700FA0022A4
:1031E00020212046FEF7FBF9002240212046FEF771
:1031F000F6F9002210212046FEF7F1F900220821FD
:103200002046FEF7ECF910BD012280212046FEF792
:10321000E6F9012220212046FEF7E1F901224021B2
:103220002046FEF7DCF90122E4E700000004004834
:1032300010B5FEF7E1F910BDF8B5204F142000904D
:10324000002650213846FCF7BFFF00253C4625608C
:10325000257165711A48A560E06020462582062127
:103260001230FCF7B1FF462020763720657600014A
:1032700060835020E5612084B421656221856185E9
:10328000A52189002164E56255212563C900656394
:103290006164A064204603214C30FCF795FF224670
:1032A0004032D57300980021401E03E008CF5E40F5
:1032B000491CC9B28142F9DBD673F8BD340600203F
:1032C000B80B000030B595B030216846FCF77CFFA4
:1032D00000240F941A20009001200D940C94129455
:1032E00010210E941194039013940590079004916B
:1032F000C003099010944001022506910A90089598
:103300000B946846FEF71AFB07200C900E940121DF
:103310000D950F940CA8FEF741FA05481090C011C6
:103320001190129410A8FEF7C5F915B030BD000039
:10333000010001007047000010B50248FFF731F8A6
:1033400010BD0000D008002010B50248FFF729F892
:1033500010BD000010090020F0B502681A4B1B4C8C
:10336000984201D0A04203D17025AA434D682A4358
:10337000174D184E184F98420AD0A04208D0174C4B
:10338000A04205D0A84203D0B04201D0B84205D136
:103390001446032212029443CA6822438024A243A3
:1033A0004C69224302608A68C2620A68826298425B
:1033B00005D0A84203D0B04201D0B84201D109697A
:1033C000016301214161F0BD002C01400004004077
:1033D00000400140004401400048014000200040FE
:1033E00030B58468FF252D021B021343AC430B4309
:1033F0002343836030BD826870239A430A430721C8
:103400000A43826070470000F0B5026A5208520019
:103410000262056A436882697024A24392080C68BC
:1034200092001443022295438A68164E2A43144D93
:10343000A84207D0B04205D0134FB84202D0134F74
:10344000B84206D10827BA43CF68174304229743EE
:103450003A46A84207D0B04205D00B4DA84202D050
:103460000A4DA84206D103252D02AB434D691D43E9
:103470008B692B4343608461496841630262F0BDFC
:10348000002C014000400140004401400048014040
:1034900070B5026A10239A430262056A4268836922
:1034A00073242402A3430C6824021C4320239D435D
:1034B0008B681B012B43124DA84208D11D46CB68D7
:1034C0008026B5431B012B434025AB4308E00D4D3F
:1034D000A84205D00C4DA84202D00C4DA84208D1FC
:1034E0000325AD02AA434D69AD0015438A699200D8
:1034F0002A434260846149688163036270BD0000B1
:10350000002C0140004001400044014000480140BF
:1035100070B5026AFF2301339A430262056A436869
:10352000C2697024A24392080C68920014430122DD
:10353000520295438A6812022A43124DA84208D1CA
:103540001546CA68C614B54312022A430515AA4394
:1035500008E00D4DA84205D00C4DA84202D00C4DFC
:10356000A84208D103252D03AB434D692D011D430E
:103570008B691B012B434360C4614968C1630262CC
:1035800070BD0000002C014000400140004401409B
:103590000048014030B5026A01231B039A430262CE
:1035A000046A4268C36973252D02AB430D682D027E
:1035B0001D4301235B039C438B681B0323430C4C7B
:1035C000A04208D00B4CA04205D00B4CA04202D028
:1035D0000A4CA04205D10124A403A2434C69A401D2
:1035E00022434260C56149680164036230BD000046
:1035F000002C0140004001400044014000480140CF
:1036000030B5036A046A6408640004628469F025C2
:10361000AC43120122430A24A3430B438261036299
:1036200030BD30B5036A1024A34303628469036A82
:103630000F252D031203AC432243A024A343090109
:1036400019438261016230BD10B5818CC90707D072
:1036500001684A6801235B049A43836A1A434A60FB
:10366000818C890707D501684A6801231B049A43A6
:10367000C36A1A434A60818C490707D501684A68C2
:1036800001239B049A43036B1A434A60818C090708
:1036900007D501684A680123DB039A43436B1A4349
:1036A0004A60818CC90607D50268916801231B0313
:1036B0009943836B19439160818C890607D5016812
:1036C0008A6801235B039A43C36B1A438A60818C27
:1036D000490612D503685A6801210905046C8A431A
:1036E00022435A60026C8A4207D102685168032360
:1036F0005B059943436C19435160818C090607D5DA
:1037000001684A680123DB04806C9A4302434A60E3
:1037100010BD0000F8B500260446C667FDF766FF39
:10372000054620680068124F000709D501212B4685
:10373000002249052046009700F046F900280DD1E7
:103740002068006840070BD501212B46002289051F
:103750002046009700F038F9002801D00320F8BD7A
:1037600020206067A067603426740020F8BD000048
:10377000FFFFFF0110B5406A0022014640314A8335
:103780004A82FEF790FF10BD01680A68FF232133CB
:103790009A430A6001688A68520852008A602021B0
:1037A000816700210166704710B5014640318B8B5F
:1037B000846F0268222C04D090690821084390612C
:1037C00010BD928C446D1A402280426D921C42655D
:1037D0004A8B521E4A83498B0029F1D101680A683D
:1037E000FF2321339A430A6001688A685208520015
:1037F0008A602021816700210166FFF7EBF810BD88
:1038000010B5014640318B8B846F0268222C04D0A6
:10381000906908210843906110BD928C1A40436D55
:103820001A70426D521C42654A8B521E4A83498B64
:103830000029F1D101680A68FF2321339A430A6005
:1038400001688A68520852008A602021816700213D
:103850000166FFF7BFF810BD70B5044680682169A6
:10386000E2690843616900251143084321680A6839
:103870004A4B1A4002430A60216848680322120337
:103880009043E26810434860A169206A22680843B7
:1038900091680B231B0299430143916040492068C2
:1038A000884210D13F48006B8007800F1DD001284F
:1038B00005D0022805D0032816D1022015E00420E7
:1038C00013E0082011E0384988420BD0374988427C
:1038D00008D03749884205D03649884202D0364957
:1038E000884201D1002000E010200122E169D203CA
:1038F000324E914228D1002806D0022807D0042851
:1039000017D0082844D11AE0FDF7CCFF13E0616816
:103910002B4A48088018FCF7E7FB80B201461039B3
:10392000B14235D82549491C01400007400F0843E2
:1039300021E0FDF7C7FF616840004A08EAE76168D7
:10394000012248081204E5E7002806D0022807D023
:10395000042813D008281BD116E0FDF7A3FF0FE0C1
:103960006168184A480811E0FCF7BEFB80B20146C6
:103970001039B1420CD82168C8600AE0FDF7A2FFF7
:1039800061684A081018EFE7616848088018EBE79B
:103990000125002020666066284670BDF369FFEFB0
:1039A0000038014000100240004400400048004040
:1039B000004C00400050004000140140EFFF0000A8
:1039C0000024F40000127A00FFB581B005460F46CE
:1039D000044660350A9E38E0701C36D0FDF706FEBE
:1039E0000499401AB04221D8002E1FD020680168E7
:1039F00049072AD5C069C043000526D401202168A3
:103A0000C002086220680168FF22A1329143016070
:103A10002068816849084900816020206067A067AC
:103A2000E06700202874032005B0F0BD206801681D
:103A3000FF22A13291430160206881684908490052
:103A4000816020206067A067EBE72068C169384685
:103A5000884305D0002103988142BDD00020E3E7D0
:103A60000121F8E710B50248FEF71EFE10BD000068
:103A70005009002010B50248FEF716FE10BD0000E8
:103A8000D0090020F8B50446334D3448698B0068EE
:103A900081422CD8217D002915D0A368AA6CC01AB8
:103AA0002B4652002F6C5B6CBE189B1A9A18D219C9
:103AB000864203D8824201D901290FD0824216D80A
:103AC000022912D013E00120207500224021244851
:103AD000FDF785FD21480068A06008E00122402133
:103AE0001F48FDF77CFD022000E000202075A86C37
:103AF0006A8B400001460A39184E511832689142CB
:103B000018D8617D002916D06B6CE6681B1A921BD1
:103B1000934206D82F6C1E18F619964201D9012936
:103B200013D018182B6CC018904203D8022901D169
:103B300000206075F8BD012060750246102108481C
:103B4000FDF74DFD3068E060F8BD0022102104480B
:103B5000FDF745FD0220ECE73406002000000020C0
:103B6000000400480FB410B504A9074B02AA03983B
:103B700000F07AF8044602A9002000F0AFFA2046CF
:103B800010BC08BC04B01847DD4000082021020C1E
:103B900001D010211046020A01D01046083902094E
:103BA00001D01046091F820801D01046891E420824
:103BB00001D0881E7047081A7047F8B5040C8BB204
:103BC000264682B25E430D0C1046370C584336042D
:103BD00080190021794116466E43370C360480194E
:103BE000794126466E438919F8BD30B47446641E87
:103BF0002578641CAB4200D21D46635D5B00E31870
:103C000030BC18478307FF22DB0E9A408907090E54
:103C10009940002808DB830809489B001B18186896
:103C200090430843186070470007000F0838830866
:103C300004489B001B18D86990430843D86170471B
:103C400000E400E000ED00E002E008C8121F08C137
:103C5000002AFAD170477047002001E001C1121F0D
:103C6000002AFBD170470000FFB591B00F46054612
:103C7000002606E025280AD0149A139990476D1C57
:103C8000761C28780028F5D1304615B0F0BD002408
:103C900000940121F34A029400E004436D1C2B7848
:103CA0000846203B98401042F7D128782A280ED0A9
:103CB000022128780246303A092A15D8009A0A23A8
:103CC0005A43303A80180C436D1C0090F1E701CF45
:103CD0000090002805DA0120400304430098404288
:103CE0000090022004436D1C28782E2815D1042052
:103CF000044368786D1C2A280AD101CF6D1C0290FC
:103D00000BE002990A225143303940186D1C029091
:103D10002878014630390929F3D928786C2810D041
:103D200006DC4C281AD068280ED06A2817D104E087
:103D3000742813D07A2812D110E0012040050443E2
:103D40000CE00121090501E0032109050C43697814
:103D5000814203D10120000524186D1C6D1C2878B8
:103D600003906E281ED00CDC632831D004DC0028C0
:103D70008AD0582811D1B2E064287BD069280CD1B0
:103D800078E073282DD004DC6F2870D0702804D11F
:103D9000A7E075286CD078286BD0149A13999047B7
:103DA000761C62E06002400F022807D003280AD088
:103DB000042838680AD006603F1D56E03868F117BD
:103DC00006604160F8E738680680F5E70670F3E7BB
:103DD0003878694608740020487404A803900120CC
:103DE00003E0386803900020C0433F1D61070FD5F2
:103DF000002101E00199491C029A0191914213DAD4
:103E00008142F7DB019A0399895C0029F2D10BE02A
:103E1000002101E00199491C01918142FADB019ADC
:103E20000399895C0029F5D101990098139A401AE9
:103E300000902146149B00F03BF901998019461827
:103E400007E0039803990078491C0391149A139989
:103E500090470198401E0190401CF2D12146149BCE
:103E6000139A009800F014F986196D1C09E741E0D7
:103E700033E034E00A200021049005916002410FF4
:103E8000022905D001CFC2179446032905D007E0C7
:103E9000FF1DFF08FF0003CF06E000B2C2179446E3
:103EA000042902D140B2C1178C46002261469445D4
:103EB00006DA0A460021404291418C462D2102E05B
:103EC000210504D52B216A461176012103E0E10783
:103ED00001D02021F7E7019154E00A200BE01020E7
:103EE00009E01020049000210420044308200591DB
:103EF000029003E008200021059104906002410F28
:103F0000022905D001CF00229446032906D006E0FD
:103F1000FF1DFF08FF0003CF8C4603E080B2042999
:103F200000D1C0B20021019121072BD5039970293E
:103F300006D0049A1021059B4A401A4305D00EE092
:103F400040216A461176012108E06146014306D00E
:103F500030216A4611760399517602210191049A23
:103F60000821059B4A401A430CD16146014301D107
:103F7000610707D530216A46117601210191029926
:103F8000491E02910399582904D037A103910FA922
:103F90000F910DE039A1F9E76146059B049AFCF702
:103FA000B9F8039B8C469B5C0F9A521E0F921370BC
:103FB00061460143F0D10F9807A9081A20300390F9
:103FC000600704D5012000048443029801E0012029
:103FD00002900399884201DD401A00E00020411858
:103FE0000290019809180098401A0090E00306D446
:103FF0002146149B139A009800F05AF88619002065
:10400000049008E006A9085C149A13999047049854
:10401000401C761C049001998842F3DBE0030CD528
:104020002146149B139A009800F042F8861904E088
:10403000149A302013999047761C0299481E0290DA
:104040000029F5DC08E00F980F990078491C0F91C2
:10405000149A13999047761C0399481E03900029DF
:10406000F1DCFBE6092801003031323334353637D4
:1040700038396162636465660000000030313233B4
:104080003435363738394142434445460000000054
:10409000F8B5044600251E461746880404D405E0FA
:1040A00039462020B0476D1C641EF9D52846F8BD5E
:1040B000FFB50446002581B01E46C80301D5302750
:1040C00000E02027880404D505E038460399B0476E
:1040D0006D1C641EF9D5284605B0F0BD0A68531C56
:1040E0000B6010707047000010B56422024903484D
:1040F000FCF7E6FF10BD00009C0600202C08002005
:1041000010B500220121104600F03EFD00220321DF
:10411000022000F039FD00220521042000F034FDCA
:1041200010BD000010B50A4A0021022000F054F929
:10413000084A1021022000F04FF9074A20210220EE
:1041400000F04AF9054A3021022000F045F910BD7F
:104150001E5000084050000862500008EA4F000856
:104160007FB50446002000900190029003906068A3
:104170000CA1056868462A462369FFF7F3FC6A46E6
:104180004621002000F048F92A4606A16846236926
:10419000FFF7E8FC6A464621022000F03DF90020C6
:1041A00004B070BD256425730000000010B50446FE
:1041B000FFF7A6FF0021154A084600F00DF914A2EA
:1041C0001021002000F028F9124A1821002000F0E8
:1041D00003F9114A2821002000F0FEF80F4A382187
:1041E000002000F0F9F8FFF79DFFFF20CD30E060E0
:1041F0005F20C000A0600A4860600AA02061012022
:1042000020702046FFF7ACFF002010BDFC4F0008D7
:104210004100000084500008A6500008EA4F000842
:10422000740600206D73000010B50446FFF768FFA8
:104230000021154A084600F0CFF814A210210020F2
:1042400000F0EAF8124A1821002000F0C5F8114ADF
:104250002821002000F0C0F80F4A3821002000F08B
:10426000BBF8FFF75FFF91208000E060C320800073
:10427000A0600A4860600AA02061012020702046EA
:10428000FFF76EFF002010BDFC4F00084200000049
:1042900084500008A6500008EA4F00087806002065
:1042A0006D73000010B50446FFF72AFF0021144A81
:1042B000084600F091F8134A1021002000F08CF815
:1042C000114A2021002000F087F8104A30210020F8
:1042D00000F082F80E4A4021002000F07DF8FFF740
:1042E00021FF1420E060C820A0600A4860600AA096
:1042F0002061012020702046FFF732FF002010BD12
:10430000C8500008EA50000884500008A650000871
:10431000EA4F00087C0600206D73000010B50446CB
:10432000FFF7EEFE0021154A084600F055F8144A42
:104330001021002000F050F8124A2021002000F047
:104340004BF8114A3021002000F046F80F4A402176
:10435000002000F041F8FFF7E5FEFF209130E0601B
:104360004B200001A0600A4860600AA02061012083
:1043700020702046FFF7F4FE002010BD0C5100080D
:104380002E510008FC4F000850510008EA4F000869
:10439000500600206D7300008AB210B57D230146DF
:1043A000DB000248FEF740FB10BD0000D0090020F2
:1043B00010B50446FBF713FF82B27D23DB002146D4
:1043C0000148FEF731FB10BDD0090020002100E0BC
:1043D000491C8142FCDB7047F7B51078941C00271C
:1043E00082B05678C008009012E002980399C01974
:1043F000C0B200F0A7FB002505E0207800F06EFCBD
:104400006D1CEDB2641CB542F7D37F1C0098FFB25F
:10441000B842EAD805B0F0BDF7B582B003980024E1
:104420007B282DD9002003900298801CC0B20290F6
:1044300026E020385E2821D8000614490025000D0A
:1044400040180090029803994019C0B200F07AFB1E
:104450000026EF000098B919405C00F03FFC761C84
:10446000F6B2082EF6D36D1CEDB2022DEAD3641C11
:104470000398E4B20830C0B2039001E0641CE4B2D7
:104480000498005D0028D4D105B0F0BD29000020BB
:1044900010B5034800F008F8024800F005F810BD18
:1044A0005012002058130020FF30012101304160DC
:1044B00000210160704730B5C21DF932536814689D
:1044C0005D1CAC420CD0002C01D1FF2B08D0C15494
:1044D0005068401CC11F5060F93901D10020506064
:1044E00030BD0000FDF790F8FEF7ECFEFEF782FC11
:1044F000FEF76CFCFEF718FCFEF722FDFEF7CEFD82
:10450000FEF7E6FDFEF704FEFEF778FD00F048F842
:10451000FF25F5351A4EFCF737FC04461948FFF71E
:10452000B1FA1848FCF7CCFB1648FCF711FB0A203F
:10453000444301462046FBF7D7FD002901D100F096
:1045400047F82046C821FBF7CFFD002905D10320FD
:1045500000F0FAF9022000F0F7F920462946FBF7AF
:10456000C3FD002902D108A0FFF722FF20463146F3
:10457000FBF7BAFD0029CED10A2000F0C5F9CAE741
:10458000102700008406002073797374656D20691C
:10459000732072756E6E696E67210D0A000000004F
:1045A00010B500F0B9FB00F0EBFC00F004FB00F0EC
:1045B000EFFC00F0DDFB00F0C7F8012000F080FA0E
:1045C00000F05AFAFCF7C0FBFFF78EFD10BD0000AB
:1045D0007FB5002651490096019602960396087908
:1045E00000287DD04E4C60700E71C978012906D12B
:1045F0004C4D012804D0022839D003285DD085E035
:1046000049A0FFF7D5FE2078002802D06A686168CB
:104610001160401CC0B22070052801D3267001E053
:10462000002801D100F04CF920780300FFF7DDFAF3
:104630000504090D1115180000F086F800F01CFAA9
:104640000EE03848FFF7B2FD0AE03648FFF7ECFD10
:1046500006E03448FFF726FE02E03248FFF75EFE30
:104660002078002852D06868006860604EE030A072
:10467000FFF79EFE207800284AD06068401C6060EA
:10468000E968814201D9A8686060A86862689042C0
:1046900000D2616046220321022000F075FA0096E4
:1046A0000196029603962B6923A168466268FFF77C
:1046B00059FA6846FFF77CFE23E021A0FFF778FE59
:1046C0002078002824D06068401E6060E96881423C
:1046D00001D9A8686060A8686268904202D200E0D0
:1046E00015E0616046220321022000F04DFA009699
:1046F0000196029603962B690FA168466268FFF740
:1047000031FA6A4646210220FFF786FE66707FBDB9
:10471000022000F0F3F900F0AFF9F7E728060020D7
:1047200020000020601400204D6F644B657900006C
:10473000496E634B65790000256425730000000015
:104740004465634B6579000010B50021254A084691
:10475000FFF742FE244A10210020FFF73DFE234AC6
:1047600020210020FFF738FE214A30210020FFF7EA
:1047700033FE204A40210020FFF72EFE1E4A002172
:104780000220FFF729FE1D4A10210220FFF724FE18
:104790001B4A20210220FFF71FFE1A4A3021022067
:1047A000FFF71AFE134A40210220FFF715FE0D4ABB
:1047B00000210420FFF710FE0B4A10210420FFF710
:1047C0000BFE0F4A20210420FFF706FE0D4A302180
:1047D0000420FFF701FE074A40210420FFF7FCFDFB
:1047E000002010BD7251000894510008B651000815
:1047F000D8510008EA4F00080C5100082E5100085B
:10480000FA5100081C52000830B5A1B005468021BD
:104810006846FBF7D9FC5024012D1AD0282269469E
:10482000104800F01BFB4F21684600F0C7FB10A9A1
:10483000C97B814211D10CA0FFF7BAFD0FA0FFF791
:10484000B7FD224669461148FBF7A5FC002021B0C0
:1048500030BD282269460E48E3E70EA0FFF7A8FD09
:10486000FF20F4E700F803087878787878787836CD
:1048700078787878787878780D0A000072656164C5
:10488000207375636573730D0A0000003406002001
:1048900000F0030872656164206572726F722D2DDD
:1048A0002D2D2D2D2D2D2D2D2D2D2D2D2D2D2D2D38
:1048B0002D2D2D2D2D2D2D2D2D2D0D0A000000001F
:1048C00000B5A1B080216846FBF77EFC4F210B4864
:1048D00000F074FB094928224031C8734039084868
:1048E00000F0C8FA28220549064800F0C3FA58210A
:1048F0006846FFF751FD002021B000BD34060020BE
:1049000000F0030800F8030810B5044600F0F6F9BB
:1049100007498A78821AA24201DA002805D18870F4
:1049200004A0FFF745FDFFF7CBFF002010BD0000FE
:104930002000002073617665206461746120746FCB
:1049400020666C6173680000FEB500240646384896
:104950000094019402940078002845D1354F002539
:10496000A01980003858FBF7A7FE2946FBF73EFC4C
:10497000241D0546642CF3DB2F49FBF7CDFC2F49A2
:10498000FBF7CAFCFBF7B8FE2D4A2E4BFBF7B4FD34
:10499000FBF7C6FE002E27D0012E25D0022E24D0F4
:1049A000032E21D1FBF7A8FE274A284BFBF796FDE3
:1049B0000022274BFBF708FEFBF7B2FE2549FBF769
:1049C0006EFC044648220321022000F0DDF8204658
:1049D000FBF779FE024620A16846FFF7C3F86A4656
:1049E00048210220FFF718FDFEBDFBF785FE144AA3
:1049F0001B4B5242FBF772FD1A4A1B4BFBF7E4FDBF
:104A0000FBF78EFE1949FBF7F1FB0446482205210E
:104A1000042000F0B9F82046FBF755FE024614A129
:104A20006846FFF79FF848216A460420DAE700004D
:104A3000200000209C0600200000C84100F07F45B7
:104A40006666666666660A4014AE47E17A14F63F0B
:104A50000000F43F00007A4425645061000000002B
:104A60009999C93F7B14AE47E17A743F0000E0405A
:104A700025644B50610000001CB5002000900446E6
:104A800001900D480078012802D0022802D002E0EF
:104A9000192400E0112448220121002000F074F8BC
:104AA000224606A16846FFF75DF86A4648210020C5
:104AB000FFF7B2FC00201CBD280000202564570031
:104AC00070B5044601280CD000220A4D012189024C
:104AD0002846FCF784FD012C05D00020064908700B
:104AE00070BD0122F1E70122D1022846FCF777FDD3
:104AF0000120F3E7000400482800002070B50F4DA6
:104B000004462878002815D00121C9020C48022C3F
:104B100007D0012C0FD00022FCF761FD012C05D13C
:104B200006E0FCF756FD2878022801D0022000E0BC
:104B30000120287070BD0122EEE70000280000204F
:104B40000004004810B5B0300C46C0B200F0B6F812
:104B50002009103000F0B2F82007000F00F0AEF886
:104B600010BD70B5002400212046FFF7EBFF0025A3
:104B7000002000F0B3F86D1CEDB2802DF8D3641C5A
:104B8000E4B2082CEFD370BDF8B5174605464E1CAD
:104B90000EE039462846FFF7D5FF3C4604E00020EA
:104BA00000F09CF8641CE4B2802CF8D36D1CEDB2CC
:104BB000B542EED3F8BD10B5012000F063F8322005
:104BC000FCF7A0FB012000F06BF8C820FCF79AFB73
:104BD000002000F065F80120FCF794FBFD2000F0B8
:104BE0006DF8122000F06AF8AE2000F067F8D520CA
:104BF00000F064F8A02000F061F8A82000F05EF852
:104C00003F2000F05BF8D32000F058F8002000F0BF
:104C100055F8402000F052F8A12000F04FF8C820CD
:104C200000F04CF8DA2000F049F8122000F046F8C5
:104C3000812000F043F8DF2000F040F8D92000F098
:104C40003DF8822000F03AF8DB2000F037F83420FD
:104C500000F034F8202000F031F8022000F02EF8A7
:104C6000A42000F02BF8A62000F028F8FFF779FF29
:104C70000A20FCF747FBAF2000F020F86420FCF787
:104C800041FB10BD10B5012806D000220121890387
:104C90000248FCF7A4FC10BD0122F7E70008004819
:104CA00010B5012801D0012200E0002201214903B2
:104CB0000148FCF794FC10BD0008004810B50446FC
:104CC000FDF768FF7820FDF735FF0020FDF732FF84
:104CD0002046FDF72FFFFDF77DFF10BD10B5044600
:104CE000FDF758FF7820FDF725FF4020FDF722FF54
:104CF0002046FDF71FFFFDF76DFF10BD00B585B025
:104D0000002269460348FDF72BF86846407805B055
:104D100000BD0000B008002010B514481249016021
:104D20006322826000214160FF2201619032416173
:104D3000C2608161FDF742F8002801D0FBF746FF11
:104D400009208021C006FCF73FFC00280BD140233E
:104D500032221E21102000F06DF8072316220C21AC
:104D6000132000F059F810BD00280040B0080020C2
:104D700000B597B0402107A8FBF726FA002201A949
:104D80001648FCF7EDFF6846807900906846437945
:104D9000027913A107A8FEF7E5FE07A8FFF708FBB5
:104DA000002206A90D48FCF7B9FF6846807E0090F6
:104DB0006846437EC27E0FA107A8FEF7D3FE07A870
:104DC000FFF7F6FA6846027E10A107A8FEF7CAFEB2
:104DD00007A8FFF7EDFA17B000BD0000B0080020EB
:104DE00054696D653A253032643A253032643A258B
:104DF00030326400446174653A3230253032642DBB
:104E0000253032642D253032640000005765656B13
:104E10003A25640D0A00000038B56C46A270617036
:104E20002370E070002269460148FDF7CBF838BDD9
:104E3000B008002010B586B06C4620706170A2707A
:104E40000020E37003900246049069460248FDF793
:104E500017F906B010BD0000B008002030B50023DF
:104E600005E004885D005B1C4C539BB2801C9342A0
:104E7000F7D330BDF7B586B01F210698C906441890
:104E80000026324815460496844202D3002009B019
:104E9000F0BDFCF7E1FA0698E70A4005860D01200F
:104EA0008002841BA54200D22C460120F902C006D4
:104EB00008180122920226490090FFF7CFFF002038
:104EC000244907E032185300214AD25A8A4203D1BA
:104ED000401C80B2A042F5D3A0422FD20020019006
:104EE000009802900120039004A901A8FCF71CFA85
:104EF000002827D108E007994200895A82195300F7
:104F0000134A401CD15280B2A042F4D30122920233
:104F10000F49009800F020F8A54213D007986100CF
:104F2000081807900698002600190690281B0124EF
:104F300085B2A4027F1CA542B7D8B5E722460799DF
:104F40000698E7E7FCF740FAA0E70000010004003C
:104F5000500A0020FFFF0000F8B516460F46054630
:104F6000002409E060003A5A002329460120FCF79A
:104F700035FA641CA4B2AD1CB442F3D3F8BD0000F2
:104F800010B50248FDF794F910BD0000100900208B
:104F900010B5FFF77DFA012205490648FDF7B8FC78
:104FA00003490122491C0448FDF7B2FC10BD000072
:104FB0001800002050090020D009002010B5034639
:104FC0000078012202E09C5C6040521C8A42FADBBD
:104FD00010BD0000000000000000010203040607ED
:104FE000080900000000010203041008000000C0CE
:104FF000C00000000000003030000000101000F879
:105000008142E09A82FA424A524202FE000000FFC8
:1050100000007F0020130C142378807F0000101004
:10502000404042CC0040A09E8282829EA020200070
:105030000000003F908840432C10284641808000AB
:105040001010100C4444444445C6444444444414A1
:105050000C008040201E2040407F44444444444093
:1050600040001010008060F80704E4A4A4BFA4A4CA
:10507000E4040000010000FF40407F4A4A4A4A4AD7
:105080007F404000101000FC848484FC001010104D
:105090001010FF101000003F1010103F000001061C
:1050A00040807F00000010100000FC040404141570
:1050B000569454341404040040300F00010101419F
:1050C000817F0101010503001010101010FF9008EE
:1050D0008888FF0000FF888808000242817F00085E
:1050E0000808FF0000FF0808080010100824A32A81
:1050F0002AEA2A2AAA2A2AEA020200000084944202
:10510000211821215284000F3040F800101000FCBB
:105110000404FC0004146404FE0243320000000F87
:1051200004040F00010141817F0101010100101001
:1051300000FC0404FC0202FE0202625A46C00000A7
:10514000000F04044F308E814628102846818000CD
:10515000101080828282FE8282828282FE8282821D
:105160008000008040300F0000000000FF000000C1
:105170000000101040504E4848FF48484840F80092
:1051800000FF000000003E0202FF12221E000F403E
:10519000807F000010100824236AAA2AAA6A2A2AFB
:1051A0002AEA020200001011151515FF1515151138
:1051B000100F3040F80010101010D0FF9014E4AF22
:1051C000A4A4A4AFE4040000040300FF00894B2A58
:1051D0001A0E1A2A4B888000101010109090909090
:1051E000901010FF101011161000002060203F10CA
:1051F000101000030C102040F80010100000FE02F8
:1052000082828282FA8282828282020080601F40D1
:10521000404040407F404044584040001010001043
:1052200010101010FF1010101010F000000000807F
:10523000402018060100204080403F000000000090
:105240006052000800000020280600000409000841
:10525000DC55000828060020702E0000583C00088D
:105260009193127A02270172F84333301C100C0616
:1052700003912C40C07803112C043F0403212D70AE
:1052800088FC0829261820FF211E14F008F033E0BE
:10529000184D211C031E11338870000C101E212391
:1052A000241927211010160E45E0180402250718AE
:1052B00020403D020418E0692C20180707174080A1
:1052C000F08040403F0202010F0102283AF0CD1C5D
:1052D00001011F04912B80B066B1191D2901913A7B
:1052E00030CE492C146018043C6018061D1EE010D6
:1052F000080810721F0F102020100FF05310F836FE
:1053000020203F20203C700808C21E302824222183
:10531000441E3008888848082E1820202011CC3BD5
:10532000C0203227070424243F241AF82023080829
:105330004B19212036E0108888184B0F11101E38A9
:105340000808C8382021523F1A702E29608F1C226D
:105350002121221C90111D31222211901961CAC0F5
:10536000C26A80C659081C40201050170102040868
:1053700010204A4001114A04012119152A4032190E
:10538000251B0402F21B7048D13AF0501A360F1E4A
:10539000C030C828E87028080718272423140B6F8A
:1053A0002A387E280D203C23020227382008F8885E
:1053B000889F4B203FF01BC0303F1B08383019102E
:1053C00019781B08F80F194039201B100F103E8860
:1053D00088E8081010AC23201810112A035E294019
:1053E000223829402C221E024019A41809F808204E
:1053F0003F21010121252A085229812942414911D1
:105400002EC08080807F0E2FF888C0281808501C7E
:105410000126382F2940292F29801B20301012F80F
:105420001AF81413203F190229204B30C0601A20AB
:1054300074123F4BE010B06B0F10B029D01AF0304F
:105440001980220179203F18242438504FC04C88FD
:105450008870C0140C30204B7088C117382021216F
:10546000221C3A189F4A188239A049D0112A1F904D
:10547000121F240878881BC838151C07380E6019BD
:105480001A1AF8201114033C0714073C03481408A7
:105490001868808068180820302C03032C302008FE
:1054A00038C82F5950298F29102F20382621202025
:1054B000681145FE020202257F4040401A0CE0615F
:1054C0001C0106380B191D42FE191D527F1A0412C9
:1054D0000211045A80011930D91D391621180819F2
:1054E000242222223F20AB390F115F3F11202011CF
:1054F0000E21311A0E104B2011104B88F8102A1073
:10550000B359401A1F3F2B22130F16F088888818B2
:105510001A20D029D1497A21176B94949493603939
:1055200060190F4C203F21F354809898793059121C
:105530001AC02719D1193039311F203F24022D30CC
:10554000212A0812893069D7294B2903190BC96010
:1055500079A019BF2B201FDD390F9C80FFA1E01916
:105560001229D03BA0FF0C3950194112208A01C0EA
:105570001B3324012A190F3AE0413952290F3923EC
:1055800049603C103F202C29053F010E30080601E0
:1055900070291038080F300C030C300F2C49A14E25
:1055A000312E0E31200C29621D818E70183059D198
:1055B000215721302C22213055807C0202443F406B
:1055C0004072FF39083C02027C8F5440403FB008D3
:0C55D0000601010202040429C569100054
:04000005080000B936
:00000001FF
